:020000040000FA
:030000000200C734
:0300130002127066
:03003B000212426C
:10008300020DFA00000080FBE4900F1F78D879027C
:100093008002F0A3D8FCD9FA7A007B0F9000D678BF
:1000A3002079018015E493A3AD82AE838A828B838A
:1000B300F0A3AA82AB838D828E83D8E9D9E7120499
:1000C3000F12008675D0007581BF750C00750D0F7A
:1000D30002008B4F7074696F6E2030312073656C32
:1000E3006563746564004552524F5220284352435E
:1000F3002900CAC0E0E6F0A308DAFAD0E0FA22C386
:10010300E498F8E499F91201438026C3E49AFAE4E7
:100113009BFBE920E7E9120143E498F8E499F9220B
:10012300C3E498F8E499F9120143E498F8E499F9DF
:10013300C3E49AFAE49BFB22EB20E7CFE920E7E054
:10014300B90010BB0008E88AF084F8AAF022E4FBA7
:10015300C8FA22EB70227B10C833C8C933C93350A5
:1001630007C39AC3DBF280069A50012ADBEAC8333D
:10017300F4C8C933F4C9FA2275F008E4C833C8C90E
:1001830033C933C99AC99B5004C92AC93BD5F0EC7A
:10019300FBC833F4C8E4C9FA22600C08C6C313C60B
:1001A30018C613C6D5E0F42200C0D0250C10AF0842
:1001B300F50C500C050D8008F50C5002050DD2AF5F
:1001C300D0D022250CF58210AF08F50C400C150D8C
:1001D3008008F50C4002150DD2AF850D8322250C46
:1001E300F582E4350DF58322250CC582C0E0E50DCB
:1001F30034FFC583C0E0E50CC3958224F910AF0832
:1002030085830D85820C800885830D85820CD2AF92
:10021300CEF0A3E520F0A37808E608F0A3DEFAEF1A
:10022300F0A3E58124FBF8E608F0A3E608F0A308B1
:1002330008E608F0A3E608F0A315811581D0E0FED7
:10024300D0E0F815811581E8C0E0EEC0E022850D0D
:1002530083850C82E0A3FEE0A3F5207808E0A3F6F3
:1002630008DFFAE0A3FFE0A3C0E0E0A3C0E0E0A35F
:10027300C0E0E0A3C0E010AF0885820C85830D8049
:100283000885820C85830DD2AFD083D08222C0D063
:10029300250CC582C0E0E50D34FFC583C0E0E50C45
:1002A300C3958224F310AF0885830D85820C8008E3
:1002B30085830D85820CD2AFC8F0A3E9F0A3EAF0E1
:1002C300A3EBF0A37908E709F0A3D8FAECF0A3EDC8
:1002D300F0A3EEF0A3EFF0A3D0E0F0A3D0E0F0A3FF
:1002E300D0E0F0A3E520F0A3E5F0F0A322850D8391
:1002F300850C82E0C0E0A3E0F9A3E0FAA3E0FBA34E
:100303007808E0F608A3DFFAE0FCA3E0FDA3E0FE33
:10031300A3E0FFA3E0C0E0A3E0C0E0A3E0F5D0A327
:10032300E0F520A3E0A3F5F010AF0885830D8582E7
:100333000C800885830D85820CD2AFD082D083D008
:10034300E0F8D0E03274028000C0E0F4041201C689
:10035300D0E01200F522D083D082ECC0E0EDC0E003
:10036300E493A3FCE493A3FDED4C600D1203A5EC11
:1003730024FFFCED34FFFD80EFE493A3FCE493A39F
:10038300FDED4C600D1203E4EC24FFFCED34FFFDA6
:1003930080EFD0E0FDD0E0FCE493A3C0E0E493C0A1
:1003A300E022C0E0C3E49396087401939618400FCB
:1003B300E49366700808740193661870007019A3BB
:1003C300A3C3E49396087401939618A3A3400DD096
:1003D300E0D0E0D0E0020395A3A3A3A3A3A3D0E0BE
:1003E30022C0E0C0F088F0E49366700808740193BB
:1003F30066187000A8F0A3A3700BD0F0D0E0D0E093
:10040300D0E0020395A3A3D0F0D0E0221212F85358
:10041300FDEF53FDDF7A1F7B0F1206D643FE0190DB
:100423000FE074E3F0A3740FF090104A744DF0A33F
:100433007410F0121055900F1FE0F9121061A3E031
:10044300F91210BB900F777479F0A3740FF07A212F
:100453007B0F120D45900F52E0F47004A3E064FE8D
:100463007008900F44E044C08012900F431209C5F6
:10047300543F4480F9900F43E8F0A3E9F0D2AF90E2
:10048300104A120D22748AF0E59D54186408700E08
:100493001209D7E4F07C02FD120D3412079AE59D90
:1004A30054186410700E1209D77401F07C02120DF7
:1004B3003212079A790112131280077A137B0F12F3
:1004C30011B212131D9010B1E0640170097A217BFF
:1004D3000F120D45E4F0121125E9C3940340E379AB
:1004E300037ADD7B0F1210D8900FDDE0647E70CBB2
:1004F300900FE0E0F508A3E0F509750A007E007FA0
:1005030000802EAA08AB091211CB850882850983C6
:10051300E0647D700BAA08AB091211CBE06420F0F4
:10052300E0250AF50AA38582088583090EEE70018A
:100533000F900FDE12079140CA7AE27B0F1211CBA4
:10054300900FE2E0250AF460030204BE900FE0126C
:100553000D378A828B83E0603714700302060E2402
:10056300F9600E24F1602224D3700302066C0204A6
:10057300C5900FDEE064047002A3E0700612082148
:100583000204C5120A240204C57A007B0F0204C2C6
:10059300A3E0900F45F07508087509007808120369
:1005A30048900FE0E02402FCA3E03400FD7A4A7B8C
:1005B3000F1212B274021201AB120CCF120BB4E879
:1005C300240A1206BE5007900F43E054DFF08A82DC
:1005D3008B83E0A2E25008900F4674FFF0A3F090E3
:1005E3000F44E0440CF0E8240B5001091206CA241E
:1005F300F5F97A437B0F120F29900F46EEF0A3EF24
:10060300F0900F43E04420F00204C5A3E0900F45AF
:10061300F0120BB488828983A3A3120D37900F487D
:10062300EAF0A3EBF0120CCFE824041206BE500745
:10063300900F43E054DFF08A828B83E0A2E25008FC
:10064300900F4674FFF0A3F0900F43E0FAA3E05439
:10065300F34408FB900F43EAF0A3EBF0E8240550C2
:1006630001091206CA24FB8088900FDEE0FEA3E096
:1006730012080A121144EE4F60317582E375830F3D
:100683008E088F09E0F9747E69600F747D69600AD2
:1006930074116960057413697009797D1211F6E0AC
:1006A3006420F91211F61207F370D974FFC3950A87
:1006B300F990104CF01211F60204C5FAE439FB8AE2
:1006C300828B83E0A2E022900F5CF0A3E9F0900F0D
:1006D300DEE022C082C0838A828B837406F0A3E4A7
:1006E300120A11A37419120780A3A37432F0A3048E
:1006F30012078074AFF0A374FEF0900F43E054E14F
:10070300F0A3E0540BF0900F43E04461F0A3E04406
:1007130088F0A3E4F0A37432F0A304F0A374FFF011
:10072300A3F0900F5274AFF0A374FEF090780CE036
:10073300900F54F090780DE0900F55F090780EE004
:10074300900F56F090780FE0900F57F0907810E0EC
:10075300900F58F0907811E0900F59F0907812E0D4
:10076300900F5AF0907813E0900F5BF0EA2422F593
:1007730082E43BF583741EF0D083D0822212078477
:100783002212078822F08A828B83A3A3A322120B4F
:10079300B7C3EE98EF992274F61201EB8A088B091E
:1007A300ECFEED12080A121144EE4F603185088207
:1007B3008509838E088F09E0F9747E69600F747D63
:1007C30069600A74116960057413697009797D128F
:1007D30011F6E06420F91211F61207F370D974FFD1
:1007E300C3950AF990104CF01211F67F03020251DF
:1007F300E0250AF50AA3E50824FFF508E50934FF17
:10080300F509E508450922FF750A00901047747E33
:10081300F0A3EEF0A3EFF079037A477B102274F78D
:100823001201EBEA2403F8E43BF9EA2402FCE43B7B
:10083300FD8C828D83E0FF88828983E0F508EFF5E4
:1008430009120A0CE0C0E01209CAD0E0120B93C0EF
:10085300E01209CAA3D0E0F088828983E0C0E012E5
:1008630009D7A3A3D0E0120D3DA3A37402F0780827
:1008730012035900000A004843BC084844D8084CF6
:100883004405095246AA084449D008594D3109453F
:1008930052A40848534D094C5379095257A408BD33
:1008A30009120A020209BD120A027C05FD120D3467
:1008B30012079A12131D0080FD120A02900F21E005
:1008C300C0E01209FDD0E0F07C060209B7120A1855
:1008D300900F24805F120A02900F4EE0C0E01209CD
:1008E300FDD0E0F0900F4FE0C0E01209F0D0E0F04F
:1008F300900F50E0C0E01209E3D0E0F0900F5102F6
:1009030009A3120A02900F4AE0C0E01209FDD0E0E9
:10091300F0900F4BE0C0E01209F0D0E0F0900F4CE4
:10092300E0C0E01209E3D0E0F0900F4D8072120AAC
:1009330018900F52120BB78A828B83A3A3A3A3A38E
:10094300E8120B8A7C077D00806D120A02900F5813
:10095300E0C0E01209FDD0E0F0900F59E0C0E012D2
:1009630009F0D0E0F0900F5AE0C0E01209E3D0E0C4
:10097300F0900F5B802A120A02900F54E0C0E0123D
:1009830009FDD0E0F0900F55E0C0E01209F0D0E08F
:10099300F0900F56E0C0E01209E3D0E0F0900F575B
:1009A300E0C0E01209C2C82408F582E438F583D018
:1009B300E0F07C09120D3212079A7F020202519075
:1009C300104AE0F8A3E02290104AE0FAA3E0F5838E
:1009D3008A82A3221209DB2290104A120D26A32237
:1009E3001209C2C82407F582E438F583221209C22A
:1009F300C82406F582E438F58322120B9AA3221247
:100A03000A0622120B9EE4F022120B6C7488F08A01
:100A1300828B83A322120A0690104AE0FAA3E0FB1A
:100A23002274F71201EBEA2403F8E43BF9E8FCE94A
:100A3300FDEA240218E43BF9880889098882F583D2
:100A4300E0F98C828D83E0F8120A0CE0C0E0120B0F
:100A530067D0E0F0850882850983E0C0E0120B6768
:100A6300A3D0E0120B93C0E0120B78D0E0F0120B8E
:100A730078A37402F0EA2404FCE43BFD88088909A6
:100A83007808120359000005004843A20A4844B9F4
:100A93000A4C44D20A4449AF0A594DEB0AF50A12EB
:100AA3000B8F900F21F09010B17401F0120BA990ED
:100AB3000F24E8120B8A120B8F900F4E120BBC906F
:100AC3000F4F120BC3900F50120BC8900F51F0121F
:100AD3000B8F900F4A120BBC900F4B120BC3900F4E
:100AE3004C120BC8900F4DF0120BA9900F52E81245
:100AF3000B8A90104A120CD2750800901047747E2E
:100B0300F0A37405F0A3E4F079037A477B10121184
:100B1300448E828F83E5822405F8E43583F9E8FE69
:100B2300E9FFE0F9747E69600F747D69600A7411EE
:100B33006960057413697009797D1211F6E0642008
:100B4300F91211F6E02508F508A3EE65827003EFAC
:100B5300658370CE74FFC39508F990104CF01211A1
:100B6300F60209BD120B6CA32290104AE0FEA3E02B
:100B7300F5838E822290104AE0FCA3E0F5838C82F9
:100B8300A3A3A322901048F0A3E9F022120B9AE446
:100B9300F08C828D83E022120B9E2290104A120D5C
:100BA3002AA3A3A3A322120A068C828D83120BB756
:100BB30022900FE01209C5F922120784A3A3E022B1
:100BC300120BCEE022120BCEA3E022120788A3A3BE
:100BD300A3222274F51201EB89088A0990104A12A4
:100BE3000CD28E828F83A3AA82AB83900F5EE0F533
:100BF3000AA3E0F50B740E780A12019CE50AFCA81F
:100C030008790074036C702C8E828F837480120CAD
:100C1300E3500109120B87750A08780A1203487C0E
:100C23006F7D0F1212B274021201ABEE2408FE5054
:100C3300350F803274026C8E828F83701974811227
:100C43000CE3500109120B87900F6E120CD8900F12
:100C53006D120CD880107482F0EAFEEBFFE82403D7
:100C6300500109120B878E828F83E509F0A3AE82B0
:100C7300AF837800900F63E0F47003A3E0F4700295
:100C83007802900F61E0F47003A3E0F47004E8D2FB
:100C9300E2F8E88E828F83F0A30EAF8385080A788B
:100CA3000A120348900F77E0FCA3E0FDEEFAEFFB96
:100CB3001212B274021201AB901048E0FCA3E0FDE3
:100CC300A3120D3712079A7F04020251900F46E0D8
:100CD300FEA3E0FF22E08E828F83F0A30EAF832278
:100CE300F0EAFEEBFFE8240522C082C0839010489F
:100CF3007406F0A3E4F0A3120D227489F0900F6040
:100D0300E0C0E01209D7D0E0120D3DE4F0901048A6
:100D1300E0FCA3E0FDA3120D3712079A02077B1232
:100D23000D2622120D2A221209C5F5838882227DFF
:100D33000090104AE0FAA3E0FB22F01209DBA322A1
:100D43002222C082C083906189E04460F09061B246
:100D53007415F09061FA7409F09061AEE4F075F0E7
:100D6300058A828B83E0A424D490618FF08A828BDE
:100D730083A3A882A983A3E0906174F08882898306
:100D8300E0906175F090780CE090616AF090780DD6
:100D9300E090616BF090780EE090616CF090780FCA
:100DA300E090616DF0907810E090616EF0907811B2
:100DB300E090616FF0907812E0906170F09078139A
:100DC300E0906171F0EA2403F8E43BF988828983B7
:100DD300A3E0906172F088828983E0906173F043AD
:100DE3009A019061A3E0D2E6F075E1EF75E1ED754C
:100DF300E1E3D083D08222C0E074F11202917A5EE3
:100E03007B0FE5E9A2E64003020EDD90619BE0A9BA
:100E1300D97805120EE8D8FB74FB29FE120F1612BF
:100E2300019CE508540364027006120EF550010B91
:100E3300120F1612019CE50854036403701278081C
:100E4300120EE8D8FB74F82EFEEA2402FA50010BC6
:100E5300120F0B12019CE50864027006120EF55086
:100E6300010B120F0B12019CE5086403700B780849
:100E7300120EE8D8FB74F82EFE1E1E900F77E0FAD0
:100E8300A3E0FBEE600B8E08120EE81508E5087070
:100E9300F7AFD9E5D9A2E75037900F5EE05407F8D2
:100EA3007009EFFAEEF9120BD5800C740168700724
:100EB300EFFAEEF9120BD6E0540764027009EFFA69
:100EC300EEF9120CEC8010EFFAEEF9120D438007E5
:100ED300EFFAEEF9120D4475E9BF759B0075E1ED6C
:100EE3007F020202F0E5D98A828B83F0A3AA82AB48
:100EF3008322E5D98A828B83F0A3E5D9F0A3AB8360
:100F03001E1EE5822408FA22900F5E120F21740E32
:100F1300780822900F5E120F21740A780822E0F5F8
:100F230008A3E0F5092274F51201EB75E1EE759162
:100F3300FD7C078A828B83120F2185080AF50B74C7
:100F43000A780A12019CE50A5403FD74036D7002CA
:100F53007C0F740E780812019CE508F8740368701E
:100F63000474082CFC74026D70020C0C740268701B
:100F7300020C0C8CD98A828B83E5822405FCE43530
:100F830083FD12103D7003ED658370F68A828B83B7
:100F9300120F1912019CE5085403F87403687012C8
:100FA300EA240712104512103D7003ED65836012A9
:100FB30080F4740268700B8C828D83E0F5D9A3E012
:100FC300F5D98A828B83120F0E12019CE508F874FF
:100FD30003687012EA241112104512103D7003EDDC
:100FE3006583601D80F47402687016EA240FFCE4C4
:100FF3003BFD8C828D83A3E0F5D98C828D83E0F554
:10100300D97800E96023EA241950010BFCEBFDE8D1
:10101300FA8C828D83E02AFEA3E034008E82F5836E
:10102300E0F5D908E8C39940E675E1E9E591A2E165
:1010330050FA7591FD7F04020251E0F5D9A3EC65E6
:101043008222F582E43BF583E5822408FCE43583C0
:10105300FD2253F1FE43F33C439A04D2AA22538662
:10106300BFE9601514601A14601F24FE6023146026
:101073002814602A14602F803575C23B75C505801E
:101083003375C23B75C506802B75C23B75C507809A
:101093002375C23B75C509801B75C23B800375C2AE
:1010A300D875C50A800E75C2D875C50B800675C282
:1010B3003B75C5084386C0225386BFE914600514F7
:1010C3006007800A75C47A800875C45A800375C4A2
:1010D300424386C02274F81201EBEAFCEBFDE9FF00
:1010E3007E00802B12111C60FB12111C60FB12117D
:1010F300EF8C828D831212A75001097A207B001294
:10110300013BEAF08C828D83A3AC82AD831F0EEF8B
:1011130070D2EEF97F010202519010F4E0F8A3E0DF
:101123006822C082C0839010F4E0F8A3E0FAE8C319
:101133009AF895E0F97A207B0012013BEAF9021153
:10114300EA74F81201EBEAFCEBFDE9604FFF8C82D5
:101153008D83E0F50812123670141212AB50010998
:101163007A207B0012013BEAF08508C1802112122C
:10117300AB5001097A207B0012013BEAFA9010D3AD
:10118300E06A60F91211A2E508F0EA9010D2F08C3F
:10119300828D83A3AC82AD831FEF70B202111790CF
:1011A30010D2E0F874B228F582E43410F58322C03B
:1011B30082C0838A828B8380041211F6A3E0F970C4
:1011C300F879001211F6801FC082C08312111C60CF
:1011D300FB1211EF8A828B831212A75001097A2026
:1011E3007B0012013BEAF0D083D08222E0F8121296
:1011F3009CE022C082C083E9FC12123670131212E3
:10120300AB5001097A207B0012013BEAF08CC180CC
:10121300201212AB5001097A207B0012013BEAFA3B
:101223009010D3E06A60F91211A2ECF0EA9010D2A8
:10123300F080B49010D2E0F8A3E0689010D222C0FE
:10124300E074F2120291C2E99010D31212AB500172
:10125300097A207B0012013BEAF09010D212111F91
:1012630060061211A5E0F5C17F010202F0C0E0742F
:10127300F21202919010F4E0F8E5C1C0E012129C62
:10128300D0E0F09010F41212AB5001097A207B00E9
:1012930012013BEAF0C28B80CF74D428F582E43488
:1012A30010F58322F09010F5E079002401F8227400
:1012B300F71201EBEAF8EBF974091201E1E0FEA37E
:1012C300E0FF80188C828D83E088828983F0A3A855
:1012D30082A9838C828D83A3AC82AD838E088F0910
:1012E300E50824FF1EE50934FFFFE508450970D42E
:1012F3007F0202025178F879010012130770FA791C
:1013030000021324E824FF18E934FFF9E8492275A1
:10131300C900740359440842C92275C9A075C9504C
:0E1323002289C6800100A89EE5C66870F822E7
:04000005000000C730
:00000001FF
