:020000040000FA
:030000000200C734
:0300130002105088
:03003B000210228E
:10008300020BFA00000080FBE4900F1F78D779027F
:100093008002F0A3D8FCD9FA7A007B0F9000D678BF
:1000A3002079018015E493A3AD82AE838A828B838A
:1000B300F0A3AA82AB838D828E83D8E9D9E7120499
:1000C3000F12008675D0007581BF750C00750D0F7A
:1000D30002008B4F7074696F6E2030312073656C32
:1000E3006563746564004552524F5220284352435E
:1000F3002900CAC0E0E6F0A308DAFAD0E0FA22C386
:10010300E498F8E499F91201438026C3E49AFAE4E7
:100113009BFBE920E7E9120143E498F8E499F9220B
:10012300C3E498F8E499F9120143E498F8E499F9DF
:10013300C3E49AFAE49BFB22EB20E7CFE920E7E054
:10014300B90010BB0008E88AF084F8AAF022E4FBA7
:10015300C8FA22EB70227B10C833C8C933C93350A5
:1001630007C39AC3DBF280069A50012ADBEAC8333D
:10017300F4C8C933F4C9FA2275F008E4C833C8C90E
:1001830033C933C99AC99B5004C92AC93BD5F0EC7A
:10019300FBC833F4C8E4C9FA22600C08C6C313C60B
:1001A30018C613C6D5E0F42200C0D0250C10AF0842
:1001B300F50C500C050D8008F50C5002050DD2AF5F
:1001C300D0D022250CF58210AF08F50C400C150D8C
:1001D3008008F50C4002150DD2AF850D8322250C46
:1001E300F582E4350DF58322250CC582C0E0E50DCB
:1001F30034FFC583C0E0E50CC3958224F910AF0832
:1002030085830D85820C800885830D85820CD2AF92
:10021300CEF0A3E520F0A37808E608F0A3DEFAEF1A
:10022300F0A3E58124FBF8E608F0A3E608F0A308B1
:1002330008E608F0A3E608F0A315811581D0E0FED7
:10024300D0E0F815811581E8C0E0EEC0E022850D0D
:1002530083850C82E0A3FEE0A3F5207808E0A3F6F3
:1002630008DFFAE0A3FFE0A3C0E0E0A3C0E0E0A35F
:10027300C0E0E0A3C0E010AF0885820C85830D8049
:100283000885820C85830DD2AFD083D08222C0D063
:10029300250CC582C0E0E50D34FFC583C0E0E50C45
:1002A300C3958224F310AF0885830D85820C8008E3
:1002B30085830D85820CD2AFC8F0A3E9F0A3EAF0E1
:1002C300A3EBF0A37908E709F0A3D8FAECF0A3EDC8
:1002D300F0A3EEF0A3EFF0A3D0E0F0A3D0E0F0A3FF
:1002E300D0E0F0A3E520F0A3E5F0F0A322850D8391
:1002F300850C82E0C0E0A3E0F9A3E0FAA3E0FBA34E
:100303007808E0F608A3DFFAE0FCA3E0FDA3E0FE33
:10031300A3E0FFA3E0C0E0A3E0C0E0A3E0F5D0A327
:10032300E0F520A3E0A3F5F010AF0885830D8582E7
:100333000C800885830D85820CD2AFD082D083D008
:10034300E0F8D0E03274028000C0E0F4041201C689
:10035300D0E01200F522D083D082ECC0E0EDC0E003
:10036300E493A3FCE493A3FDED4C600D1203A5EC11
:1003730024FFFCED34FFFD80EFE493A3FCE493A39F
:10038300FDED4C600D1203E4EC24FFFCED34FFFDA6
:1003930080EFD0E0FDD0E0FCE493A3C0E0E493C0A1
:1003A300E022C0E0C3E49396087401939618400FCB
:1003B300E49366700808740193661870007019A3BB
:1003C300A3C3E49396087401939618A3A3400DD096
:1003D300E0D0E0D0E0020395A3A3A3A3A3A3D0E0BE
:1003E30022C0E0C0F088F0E49366700808740193BB
:1003F30066187000A8F0A3A3700BD0F0D0E0D0E093
:10040300D0E0020395A3A3D0F0D0E0221210D8537A
:10041300FDEF53FDDF7A1F7B0F12068943FE019028
:100423000FE074E3F0A3740FF090104A744DF0A33F
:100433007410F0120E55900F1FE0F9120E61A3E035
:10044300F9120EBB900F777479F0A3740FF07A2131
:100453007B0F120B45900F52E0F47004A3E064FE8F
:100463007008900F44E044C08012900F4312097E3D
:10047300543F4480F9900F43E8F0A3E9F0D2AF80F2
:10048300077A137B0F120F9279037ADD7B0F120E1B
:10049300D8E9640370F2900FDDE0647E70EA900F98
:1004A300E0E0F508A3E0F509750A007E007F00800F
:1004B3002EAA08AB09120FAE850882850983E06472
:1004C3007D700BAA08AB09120FAEE06420F0E025A3
:1004D3000AF50AA38582088583090EEE70010F9041
:1004E3000FDE12074040CA7AE27B0F120FAE900F65
:1004F300E2E0250AF4708A900FE0120AE48A828B04
:1005030083E060341470030205BC24F9600E24F107
:10051300601F24D3700302061F02048B900FDEE0DA
:1005230064047002A3E0600302048B1207D2020486
:100533008B7A007B0F020488A3E0900F45F07508C7
:10054300087509007808120348900FE0E02402FCC4
:10055300A3E03400FD7A4A7B0F1210927402120159
:10056300AB900F46E0FEA3E0FF12097BF9E8240AF3
:100573001206715007900F43E054DFF08A828B8399
:10058300E0A2E25008900F4674FFF0A3F0900F44EE
:10059300E0440CF0E8240B50010912067D24F5F920
:1005A3007A437B0F120D29900F46EEF0A3EFF090E4
:1005B3000F43E04420F002048BA3E0900F45F012B8
:1005C300097BF988828983A3120AE3900F48EAF032
:1005D300A3EBF0900F46E0FEA3E0FFE8240412062D
:1005E300715007900F43E054DFF08A828B83E0A2BF
:1005F300E25008900F4674FFF0A3F0900F43E0FA27
:10060300A3E054F34408FB900F43EAF0A3EBF0E8B4
:10061300240550010912067D24FB8083900FDEE040
:10062300FEA3E01207BB120F25EE4F60317582E384
:1006330075830F8E088F09E0F9747E69600F747DEE
:1006430069600A74116960057413697009797D1210
:100653000FD6E06420F9120FD61207A470D974FFE5
:10066300C3950AF990104CF0120FD602048BFAE4EA
:1006730039FB8A828B83E0A2E022900F5CF0A3E92E
:10068300F0900FDEE022C082C0838A828B837406DF
:10069300F0A3E4120739A37419120733A3A3743226
:1006A300F0A30412073374AFF0A374FEF0900F436A
:1006B300E054E1F0A3E0540BF0900F43E04461F009
:1006C300A3E04488F0A3E4F0A37432F0A304F0A3FE
:1006D30074FFF0A3F0900F5274AFF0A374FEF09088
:1006E300780CE0900F54F090780DE0900F55F09057
:1006F300780EE0900F56F090780FE0900F57F0903F
:100703007810E0900F58F0907811E0900F59F09026
:100713007812E0900F5AF0907813E0900F5BF0EAB4
:100723002422F582E43BF583741EF0D083D0822229
:10073300120739A3A322F08A828B83A322E0F8A3B2
:10074300E0F9C3EE98EF992274F61201EB8A088B55
:1007530009ECFEED1207BB120F25EE4F6031850841
:10076300828509838E088F09E0F9747E69600F74AE
:100773007D69600A74116960057413697009797D74
:10078300120FD6E06420F9120FD61207A470D974A1
:10079300FFC3950AF990104CF0120FD67F030202A3
:1007A30051E0250AF50AA3E50824FFF508E5093415
:1007B300FFF509E508450922FF750A009010477403
:1007C3007EF0A3EEF0A3EFF079037A477B10227457
:1007D300F71201EBEA2403F8E43BF9EA2402FCE410
:1007E3003BFD8C828D83E0FF88828983E0F508EFEF
:1007F300F50990104AE0FEA3E0F5838E8274881217
:100803000739E0C0E0120983D0E0F08C828D83E0E9
:10081300C0E0120983A3D0E0F088828983E0C0E0BE
:10082300120B24A3A3D0E0120B35A3A37402F07818
:100833000812035900000A0048436B08484487081C
:100843004C44B4085246650844497F08594DE008B2
:10085300455265084853FE084C532A095257650808
:1008630076091209B90209761209B9900F21E0C07D
:10087300E01209B2D0E0F07C0602096B1209C590C0
:100883000F24805F1209B9900F4EE0C0E01209B245
:10089300D0E0F0900F4FE0C0E01209A1D0E0F0905B
:1008A3000F50E0C0E0120990D0E0F0900F51020920
:1008B300541209B9900F4AE0C0E01209B2D0E0F037
:1008C300900F4BE0C0E01209A1D0E0F0900F4CE094
:1008D300C0E0120990D0E0F0900F4D80741209C56A
:1008E300900F5212097EF98A828B83A3A3A3A3A339
:1008F300E8F0A3E9F07C077D0080751209B9900F39
:1009030058E0C0E01209B2D0E0F0900F59E0C0E027
:100913001209A1D0E0F0900F5AE0C0E0120990D084
:10092300E0F0900F5B802A1209B9900F54E0C0E009
:100933001209B2D0E0F0900F55E0C0E01209A1D047
:10094300E0F0900F56E0C0E0120990D0E0F0900F75
:1009530057E0C0E090104A12097EC82408F582E4EB
:1009630038F583D0E0F07C097D0090104A120AE448
:1009730012074B7F02020251900FE0E0F8A3E0223E
:1009830090104AE0FAA3E0F5838A82A32290104AEA
:10099300E0F8A3E0C82407F582E438F58322901039
:1009A3004AE0F8A3E0C82406F582E438F58322126E
:1009B3000B3AA3A3A3221209BD22120B3EA3A3E465
:1009C300F0221209BD90104AE0FAA3E0FB22227440
:1009D300F51201EB89088A0990104AE0FEA3E0FFB3
:1009E3008E828F83A3AA82AB83900F5EE0F50AA366
:1009F300E0F50B740E780A12019CE50AFCA808794D
:100A03000074036C70308E828F837480120AEA50F4
:100A13000109901048F0A3E9F0750A08780A120357
:100A2300487C6F7D0F12109274021201ABEE240802
:100A3300FE503D0F803A74026C8E828F83701D745A
:100A430081120AEA500109901048F0A3E9F0900FCF
:100A53006E120AD0900F6D120AD080147482F0EADD
:100A6300FEEBFFE82403500109901048F0A3E9F0DE
:100A73008E828F83E509F0A3AE82AF837800900F57
:100A830063E0F47003A3E0F470027802900F61E076
:100A9300F47003A3E0F47004E8D2E2F8E88E828FE6
:100AA30083F0A30EAF8385080A780A120348900FD8
:100AB30077E0FCA3E0FDEEFAEFFB12109274021252
:100AC30001AB120ADB12074B7F04020251E08E8254
:100AD3008F83F0A30EAF8322901048E0FCA3E0FDC8
:100AE300A3E0FAA3E0FB22F0EAFEEBFFE8240522F1
:100AF300C082C0839010487406F0A3E4F0A31209E7
:100B03007EF58388827489F0900F60E0C0E0120B59
:100B130024D0E0120B35E4F0120ADB12074B020774
:100B23002E120B282290104AE0F8A3E0F583888266
:100B3300A322F0120B3A22120B3E22120B28A322FD
:100B43002222C082C083906189E04460F09061B248
:100B53007415F09061FA7409F09061AEE4F075F0E9
:100B6300058A828B83E0A424D490618FF08A828BE0
:100B730083A3A882A983A3E0906174F08882898308
:100B8300E0906175F090780CE090616AF090780DD8
:100B9300E090616BF090780EE090616CF090780FCC
:100BA300E090616DF0907810E090616EF0907811B4
:100BB300E090616FF0907812E0906170F09078139C
:100BC300E0906171F0EA2403F8E43BF988828983B9
:100BD300A3E0906172F088828983E0906173F043AF
:100BE3009A019061A3E0D2E6F075E1EF75E1ED754E
:100BF300E1E3D083D08222C0E074F11202917A5EE5
:100C03007B0FE5E9A2E64003020CDD90619BE0A9BE
:100C1300D97805120CE8D8FB74FB29FE120D1612C5
:100C2300019CE508540364027006120CF550010B95
:100C3300120D1612019CE508540364037012780820
:100C4300120CE8D8FB74F82EFEEA2402FA50010BCA
:100C5300120D0B12019CE50864027006120CF5508C
:100C6300010B120D0B12019CE5086403700B78084D
:100C7300120CE8D8FB74F82EFE1E1E900F77E0FAD4
:100C8300A3E0FBEE600B8E08120CE81508E5087074
:100C9300F7AFD9E5D9A2E75037900F5EE05407F8D4
:100CA3007009EFFAEEF91209D1800C74016870072C
:100CB300EFFAEEF91209D2E0540764027009EFFA71
:100CC300EEF9120AF38010EFFAEEF9120B438007E4
:100CD300EFFAEEF9120B4475E9BF759B0075E1ED70
:100CE3007F020202F0E5D98A828B83F0A3AA82AB4A
:100CF3008322E5D98A828B83F0A3E5D9F0A3AB8362
:100D03001E1EE5822408FA22900F5E120D21740E36
:100D1300780822900F5E120D21740A780822E0F5FC
:100D230008A3E0F5092274F51201EB75E1EE759164
:100D3300FD7C078A828B83120D2185080AF50B74CB
:100D43000A780A12019CE50A5403FD74036D7002CC
:100D53007C0F740E780812019CE508F87403687020
:100D63000474082CFC74026D70020C0C740268701D
:100D7300020C0C8CD98A828B83E5822405FCE43532
:100D830083FD120E3D7003ED658370F68A828B83BB
:100D9300120D1912019CE5085403F87403687012CC
:100DA300EA2407120E45120E3D7003ED65836012AF
:100DB30080F4740268700B8C828D83E0F5D9A3E014
:100DC300F5D98A828B83120D0E12019CE508F87403
:100DD30003687012EA2411120E45120E3D7003EDE2
:100DE3006583601D80F47402687016EA240FFCE4C6
:100DF3003BFD8C828D83A3E0F5D98C828D83E0F556
:100E0300D97800E96023EA241950010BFCEBFDE8D3
:100E1300FA8C828D83E02AFEA3E034008E82F58370
:100E2300E0F5D908E8C39940E675E1E9E591A2E167
:100E330050FA7591FD7F04020251E0F5D9A3EC65E8
:100E43008222F582E43BF583E5822408FCE43583C2
:100E5300FD2253F1FE43F33C439A04D2AA22538664
:100E6300BFE9601514601A14601F24FE6023146028
:100E73002814602A14602F803575C23B75C5058020
:100E83003375C23B75C506802B75C23B75C507809C
:100E93002375C23B75C509801B75C23B800375C2B0
:100EA300D875C50A800E75C2D875C50B800675C284
:100EB3003B75C5084386C0225386BFE914600514F9
:100EC3006007800A75C47A800875C45A800375C4A4
:100ED300424386C02274F81201EBEAFCEBFDE9FF02
:100EE3007E00802B120F1C60FB120F1C60FB120F85
:100EF300CF8C828D831210875001097A207B0012D8
:100F0300013BEAF08C828D83A3AC82AD831F0EEF8D
:100F130070D2EEF97F010202519010F3E0F8A3E0E2
:100F2300682274F81201EBEAFCEBFDE9604FFF8CD9
:100F3300828D83E0F508121016701412108B500185
:100F4300097A207B0012013BEAF08508C180211257
:100F5300108B5001097A207B0012013BEAFA9010B2
:100F6300D2E06A60F9120F82E508F0EA9010D1F03E
:100F73008C828D83A3AC82AD831FEF70B28095907A
:100F830010D1E0F874B128F582E43410F58322C05F
:100F930082C0838A828B838004120FD6A3E0F97008
:100FA300F87900120FD6D083D08222C082C0831278
:100FB3000F1C60FB120FCF8A828B831210875001A4
:100FC300097A207B0012013BEAF080DAE0F8121084
:100FD3007CE022C082C083E9FC1210167013121049
:100FE3008B5001097A207B0012013BEAF08CC1800F
:100FF3002012108B5001097A207B0012013BEAFA80
:101003009010D2E06A60F9120F82ECF0EA9010D1EE
:10101300F080939010D1E0F8A3E0689010D122C043
:10102300E074F2120291C2E99010D212108B5001B7
:10103300097A207B0012013BEAF09010D1120F1FB6
:101043006006120F85E0F5C17F010202F0C0E07473
:10105300F21202919010F3E0F8E5C1C0E012107CA7
:10106300D0E0F09010F312108B5001097A207B002E
:1010730012013BEAF0C28B80CF74D328F582E434AB
:1010830010F58322F09010F4E079002401F8227423
:10109300F71201EBEAF8EBF974091201E1E0FEA3A0
:1010A300E0FF80188C828D83E088828983F0A3A877
:1010B30082A9838C828D83A3AC82AD838E088F0932
:1010C300E50824FF1EE50934FFFFE508450970D450
:1010D3007F0202025178F87901001210E770FA7961
:1010E300000210F2E824FF18E934FFF9E8492289E5
:0C10F300C6800100A89EE5C66870F822C7
:04000005000000C730
:00000001FF
